S00C000074657374312E733337F7
S214012000C00A002029300100811603008116030052
S2140120101B2B0300811603008116030081160300A3
S2140120208116030081160300811603008116030042
S214012030811603004CCC0300272D030081160300F4
S2140120408116030081160300811603008116030022
S2140120508116030081160300113901008116030061
S214012060811603008116030085800100A12A010064
S214012070291503008116030081160300811603004B
S21401208081160300811603008116030081160300E2
S21401209081160300ED370100811603008116030047
S2140120A081160300811603008116030081160300C2
S2140120B0811603008116030081160300D5FC020079
S2140120C0ADB70300A9B7030069F40200B9B703006E
S2140120D0B1B7030099FC0200B5B70300CDD90200E1
S2140120E015FD020081160300811603008116030008
S2140120F08116030081160300811603008116030072
S2140121008116030081160300811603008116030061
S2140121108116030081160300811603008116030051
S2140121208116030081160300811603008116030041
S208012130811603000B
S214012134F0B5114A114C124E00F00105E3695F0730
S21401214413D40DB9334213D103EA00078F4207D1E2
S2140121540B4A1A40002A0CBF00206FF00100F0BDA4
S214012164013AEBD16FF00200F9E74FF0FF30F6E7E2
S2140121746FF00100F3E700BF80969800000003505B
S214012184020001000B4B70B5D96911F480310DD1F1
S21401219401244FF48072084E084DF46020462C64E6
S2140121A41A61FFF7C5FF3464EC6070BD6FF001007F
S2140121B4FBE700BF0000035000100350002003504B
S2140121C438B541F6713301220C4C0021E569E3630D
S2140121D40B4B05F48035DA6002236061212023610C
S2140121E4FFF7A6FF10B92120FFF7A2FF0122054B36
S2140121F4DA600DB10023E36338BD00BF000003506D
S214012204001003500020035070B5134C6061E3695D
S2140122145B071ED40E4656F8043B8D18A361AE42E6
S2140122240BD10423002121202361FFF781FF58B934
S214012234BDE870402120FFF77BBF08210846FFF761
S21401224477FF10B10423236170BD56F8043BA361E4
S214012254E5E74FF0FF30F7E7000003502DE9F843B8
S214012264154641F67132164B8946DF69DA63012257
S214012274064603F58053DFF8508007F48037DA60AA
S21401228455B9284601220F4BDA601FB10022A3F587
S2140122940053DA63BDE8F88306F5005404EA08043B
S2140122A4A41BAC4228BF2C46494622463046FFF7BB
S2140122B4ABFF0028E6D12644A1442D1BE0E700BF6E
S2140122C4000003500020035000E0FFFF0000000060
S2140122E0013800D0FCE77047002370B5404C054626
S2140122F08AB0E36318B1008823600CF06BF93D489F
S21401230028F08AFD3C4E3D4B304633603C4B7360B3
S21401231024F0F3FA0021304616F0D2FF32A3D3E9B7
S2140123200023A062C4E9062324F0F2FAD4E90623C6
S21401233019431043C4E90601CDE900014FF0FF330C
S2140123404FF0FF32A06A28F0BBFD02224FF0FF31AA
S214012350A06A28F0BAFD01200BF098FD4FF4007337
S21401236000222849A06A28F001FEB0F5007F38D186
S21401237000239422CDE9073309933C23CDE90332A8
S21401238005939623A06A03A9069317F081F835B33F
S214012390287C0CF0BFF90546F0B9A06A28F0C2FE09
S2140123A00CF066F90BF054FD20B14FF4807000215B
S2140123B008F0DCFD0BF05CFD20B14FF4006000215D
S2140123C008F0D4FD24F0CAFB012016F0CFFF0E4A18
S2140123D00E49A06A24F08FFA28460AB070BDFF2085
S2140123E0D7E70725F8E700BF0DD501552000000007
S2140123F0300B0020690345EC481D002011DD01006B
S214012400581D0020481B00209F680300DF6803005A
S2140124100348044B834202D0034B03B1184770476D
S214012420642A0020642A002000000000064B0749A9
S214012430C91A891048BF0131491003D0044B0BB1AA
S21401244001481847704700BF642A0020642A00200C
S2140124500000000010B5064C237843B9FFF7D8FFFB
S214012460044B13B10448AFF300800123237010BD61
S2140124705625002000000000F0FB030008B5054BC0
S2140124801BB105490548AFF30080BDE80840FFF7DA
S214012490CDBF00BF00000000980D0020F0FB030038
S2140124A0A3F5803A704700BF174B002B08BF134BAC
S2140124B09D46FFF7F5FF00218B460F461348144A49
S2140124C0121A29F0ADFA0E4B002B00D098470D4B8F
S2140124D0002B00D098470020002104000D000D4875
S2140124E0002802D00C48AFF300801DF0FBFF20004F
S2140124F029001EF0B3FF1DF0CBFD00BF0000080051
S2140125000000000000000000C00A0020C00A0020F1
S21401251080260020000000000000000070B50125A4
S2140125200D4C042200210123022001F0C3FF04F513
S21401253000531D6744F6206004F5805405F0E0FD65
S2140125401E20256705F0DCFD2B462A46BDE87040B7
S2140125500021022001F0AEBF00C0035042F211700C
S2140125600D4A536FDB070DD442F211700A4A536FBE
S214012570D9070AD542F21170074A536FDB0707D411
S214012580012001E00138ECD170470138EFD1FBE7BB
S2140125900138F2D1F8E700BF00C0035070B5072537
S2140125A00024104E42F2117301E0013B18D0726F05
S2140125B0D007FAD5282005F0A3FD736FD90709D5F2
S2140125C00123AB401C4342F211730649E4B24A6F41
S2140125D0D20703D4013DE5D2204670BD013BF6D1BA
S2140125E00024F9E700C0035008B504481DF018FEA2
S2140125F0BDE80840024805F083BD00BFE8C70300F8
S21401260040420F00F7B51D481DF0F8FDFFF786FFA5
S214012610FFF7A4FF01282DD1FFF7C0FF184D194F72
S2140126202870FFF7BBFF3870FFF7B8FF164E174C40
S2140126303070FFF7B3FF2070FFF7B0FF144B2D7813
S2140126403A78188033782678AC181C443119CCB205
S21401265084420AD129460F4800961DF0CFFD0E4848
S21401266003B0BDE8F04005F04BBD02460B481DF037
S214012670C5FDF4E70A481DF0D3FDF0E706C80300E0
S2140126805A250020592500205825002057250020CE
S2140126900425002019C8030080841E0044C80300D6
S2140126A06FC8030030B503687C4A23F47F4323F0E8
S2140126B00703934289B040F0EE80082200211220E1
S2140126C0774B0FF063FD044610B3764D76492868C4
S2140126D01FF0C1FF754928681FF0BDFF1EF06FFF90
S2140126E01EF06EFF724B734A009373495C23286891
S2140126F01FF0B1FF71492346714A28681FF0ABFFEE
S214012700204600F017FB6F4928681FF0A4FFFEE77C
S2140127100146032214206C4B0FF038FD044610B31B
S214012720604D614928681FF096FF604928681FF0D0
S21401273092FF1EF044FF1EF043FF5D4B5D4A00937F
S2140127405D496A2328681FF086FF5C4923465C4A78
S21401275028681FF080FF204600F0ECFA59492868E7
S2140127601FF079FFFEE7014605221620574B0FF0B2
S2140127700DFD054610B34B4C4B4920681FF06BFF0F
S2140127804A4920681FF067FF1EF019FF1EF018FF68
S214012790474B484A00934849782320681FF05BFF5F
S2140127A046492B46464A20681FF055FF284600F04A
S2140127B0C1FA444920681FF04EFFFEE70DF10F01F4
S2140127C004A80FF011FD044610B3364D36492868AB
S2140127D01FF041FF354928681FF03DFF1EF0EFFE50
S2140127E01EF0EEFE324B334A0093334983232868AA
S2140127F01FF031FF31492346314A28681FF02BFF6D
S214012800204600F097FA2F4928681FF024FFFEE7BC
S214012810BDF8143001465BBAADF818309DF8133098
S21401282008228DF81A30FF238DF81B30FE238DF811
S2140128301C309DF8123018208DF81D30BDF8103070
S2140128405BBAADF81E3006AB0FF0A0FC054610B320
S214012850144C154920681FF0FEFE144920681FF02D
S214012860FAFE1EF0ACFE1EF0ABFE114B114A0093B1
S2140128701149932320681FF0EEFE10492B46104A9B
S21401288020681FF0E8FE284600F054FA0D4920683B
S2140128901FF0E1FEFEE709B030BD00BFA000010059
S2140128A09CC80300640E00206DC80300A5C8030081
S2140128B011C90300AAC80300D2C80300E1C8030077
S2140128C0DEC80300F6C8030007C903000BC90300EE
S2140128D007B501A801F06AFF9DF80530012B27D145
S2140128E0214A936DDB0313D4536B23F4FF0323F4C4
S2140128F0FE4343F4BC1343F4A0635363136B23F406
S214012900704343F440431363136B43F4E063136370
S2140129109DF8043063B94FF000531B68134B1B68D6
S214012920134B1B68134B1B68134B1B68134B1B681D
S214012930134AD2F8803043F00303C2F8803003F024
S214012940ABFD00F049FB1FF039FE1FF0A9FD04F0B6
S2140129507FF800F037FB00F07BFC00F081FF03B04E
S2140129605DF804EB04F07EBC00C00050004000207F
S2140129700080002000C0002000000120004001204F
S2140129800080005030B5204D95B00DAC0FCD0FC472
S21401299095E80700032384E8070001248DF84D30ED
S2140129A01A4A1B4B0021CDE903231A4B0E220DF1C7
S2140129B02600CDE9053429F033F84FF48021164B73
S2140129C00DAACDE907130B238DF824300C238DF8BF
S2140129D02530124B07A90A9320230B93104B11485D
S2140129E0009303AB8DF8314003F074FF04469DF865
S2140129F032304FF4E130002B0CBF032100211EF0D2
S214012A0030FE204615B030BD6CCB0300008005506B
S214012A102100050006000402248005505B250020E5
S214012A20B00D0020000E0020831E012B10B512D819
S214012A30012922D8114B04221B6905210020C3F36A
S214012A40401301F037FD0E4B1B681868A8B1BDE8AE
S214012A501040436A18478B1E012B0CD801280CD84E
S214012A60BDE810400022054B05211B691046C3F343
S214012A70401301F01FBD0129E5D910BD00C0035068
S214012A802028002008B50449044804F0A5FCBDE848
S214012A900840FFF777BF00BF24280020240E00203F
S214012AA001481FF06FBF00BF000E0020014B1A6ADD
S214012AB018681047000E0020184B37B583422AD1FC
S214012AC0174B1B783BB3C8B20FF04EFB054610B34D
S214012AD0144C154920681FF0BEFD144920681FF0EC
S214012AE0BAFD1EF06CFD1EF06BFD114B114A0093F2
S214012AF01149852320681FF0AEFD10492B46104A68
S214012B0020681FF0A8FD284600F014F90D4920683A
S214012B101FF0A1FDFEE703B030BD00BF2C0E002064
S214012B207B250020640E00206DC80300A5C80300A5
S214012B3015CC030088CB0300D2C80300E1C803000C
S214012B40DEC80300F6C8030030B500250368584AFE
S214012B5023F47F4323F0070385B09342044602958E
S214012B60ADF80C507ED002F5802293420ED0A2F131
S214012B708272934240F09A804E4B1B78002B00F0F5
S214012B80958005B0BDE8304020F0C0B8B0F80530FB
S214012B901B2B40F08B80FF2304A91A4611E9030082
S214012BA01EF006FD012814BF41F2FC15414B05F04D
S214012BB0FC0208BF18701B2120790FF0FDFA0546AC
S214012BC010B33D4C3D4920681FF045FD3C49206847
S214012BD01FF041FD1EF0F3FC1EF0F2FC394B3A4AA1
S214012BE000933A49592320681FF035FD38492B4692
S214012BF0384A20681FF02FFD284600F09BF836491A
S214012C0020681FF028FDFEE7344900902379344AF6
S214012C100968344800F0EAF80546002846D0264CF4
S214012C20264920681FF017FD254920681FF013FD6F
S214012C301EF0C5FC1EF0C4FC224B234A0093234918
S214012C40622320681FF007FD21492B46214A206890
S214012C501FF001FD284600F06DF81F4920681FF09F
S214012C60FAFCFEE7B0F80530B7EE047A07EE903AC4
S214012C70F8EE677AB0F8073067EE877A013307EE29
S214012C80103AB8EEC77A67EE877AB1EE047A67EE45
S214012C90877AFAFE677AFCEEE77A17EE903AB3F592
S214012CA07A7F38BF4FF47A730C4A136005B030BD93
S214012CB0A00006027B250020640E00206DC80300DC
S214012CC0A5C8030024CC030088CB0300D2C80300A8
S214012CD0E1C80300DEC80300F6C803002C28002064
S214012CE0B92A01002C0E0020012208B5074B1A70E4
S214012CF00022074B1A700422064B1A701F22064B3D
S214012D001A7003F047FC054B186008BD3C2A0020EA
S214012D107C2500203B2A00203A2A0020640E002051
S214012D20024B034918681FF096BC00BF640E0020D2
S214012D3044CC030070B50C4C0C49064620681FF0C5
S214012D408AFC03F027FC0546206803F017FC304692
S214012D50FFF7E6FF284603F011FC20680449BDE8AA
S214012D6070401FF078BC00BF640E002046CC030004
S214012D7048CC030038B505461EF09EFC00230B4ADE
S214012D8014685CB1AC4206D1A96A6BB199621EF0B7
S214012D9099FC012007E02346A46AF2E7002DF3D050
S214012DA01EF090FC204638BD1160F0E7680E00204A
S214012DB010B50446B0B104F0F9FE2046FFF7DAFF7D
S214012DC010B194F82C300BB9002010BD064C2368C6
S214012DD0002BF9D01EF070FC2368013B23601EF027
S214012DE071FCF1E72220F0E76C0E00202DE9F0439C
S214012DF085B00546914698460E469DF8307009B94D
S214012E00002F5CD12846FFF7D3FF0446002836D1B1
S214012E1085F82C00686304F0D7FF864233D904F0A6
S214012E2073FF2146844640F2E7304FF47A7200235E
S214012E30E6FB0C011CF09CFF4FF0FF3200231CF058
S214012E4097FF2B46E88611462846CDE900441D4AE1
S214012E501FF0E4FE044690B9C5E9089885F82D7080
S214012E602E631EF029FC184A136833B31A469B6A70
S214012E70002BFBD195620023AB621EF023FC20469B
S214012E8005B0BDE8F08347B12B4631462846CDE96B
S214012E9000440C4A04F05CFFDCE7304603A904F06A
S214012EA039FF04460028EAD12B462846CDE90077AB
S214012EB0044A03991FF08EFECCE71560DBE7212458
S214012EC0DDE700BFCD2E0100680E002091F82C3002
S214012ED013B50C4683B98B8ECA8E93420ED243B974
S214012EE0CDE9003320460B46124A4FF0FF311FF062
S214012EF055FEA38E0133A38602B010BD52B191F8E0
S214012F002D3093B101230093D1E908232046096BA4
S214012F10FFF76CFF012384F82C30074B1A68013247
S214012F201EBF1A6801321A60E6E7084604F03EFE44
S214012F30F0E700BFCD2E01006C0E00202DE9F04118
S214012F40154E336833B34FF00008144F1EF0B4FB30
S214012F5005463C6824B92846BDE8F0411EF0B2BBE0
S214012F6094F82C30A3B1336884F82C8013B13368FD
S214012F70013B336094F82D3013B92046FFF7FAFE73
S214012F8028461EF09FFBD4E9083120469847DDE726
S214012F90A46ADFE7BDE8F0816C0E0020680E002011
S214012FA0034B1B68002B14BF04200120704700BF91
S214012FB06C0E0020024B1868B0FA80F0400970478A
S214012FC06C0E002008B503481FF076FABDE80840ED
S214012FD01EF079BA44CE030001481FF06DBA00BF57
S214012FE044CE030007B508201EF076FB02238DF8B9
S214012FF00030054B684601931EF0F7FA082003B02F
S2140130005DF804EB1EF073BB006A18100348044A0F
S2140130100449121A92101EF034BB00BF342101007D
S214013020D42201008026002008B500F02FF8FFF713
S214013030EDFF124B12498B4212D30020114B12495D
S2140130408B4218D3FFF730FA186850F822405868B8
S21401305040F82240013298688242F5D30C33EAE701
S2140130600022F8E71C6844F8220001325C68A2429C
S214013070F8D30833E4E70022F8E700BFF8FB0300C3
S21401308004FC030004FC030004FC0300124B134A77
S21401309070B59A60D3F88820114D42F47002C3F8D7
S2140130A088206FF0010205F50054226641F2FF7296
S2140130B062660222C3F8D020BFF34F8FBFF36F8F33
S2140130C04FF44036032003F037FA0320E66003F09E
S2140130D025FA2E6170BD00BF00ED00E00020010062
S2140130E000800044014B1868704700BF3428002058
S2140130F0014B1860704700BF34280020084B1B6F37
S21401310003F00703022B04D0032B05D0012B05D0B7
S214013110FEE7044B18687047034BFBE7034870470C
S21401312000800050342800203C280020002D31016A
S21401313008B5FFF7E3FF054B1B6FC3F301330133FC
S214013140B0FBF3F0024B186008BD00BF00800050D2
S214013150302800200048704700B4C404014B1868AA
S214013160704700BF3C280020054B1860054B1B6FBD
S21401317003F00703032B01D1FFF7DABF704700BF47
S2140131803C2800200080005000487047002D310187
S214013190174B9868C0F304400C280AD8DFE800F003
S2140131A00B0909090909072119091B1D1F001148E7
S2140131B07047002070479B6803F04073B3F1807F2F
S2140131C011D0B3F1007F10D00B4A002B08BF104678
S2140131D070470A4870470A4870470A4870470A48C5
S2140131E070470A4870470A4870470A48704700BF48
S2140131F00040015A405DC60000093D00C0EA2101B9
S21401320080BA8C010048E801005A62020024F400EA
S21401321080841E0040420F00014B1868704700BFB3
S2140132203828002000239B6AB3F5903F03D2196823
S214013230064A914203D0002303708360704701223F
S21401324002709A689B694260F7E700BF07B0CD5EDF
S21401325000239B6A10B5B3F5903F11D219680A4A4C
S21401326091420DD1094C227812F0FD0F01D00020B9
S21401327010BDDB6998470028FAD101232370F6E7D1
S2140132804FF48170F4E700BF07B0CD5E7D250020C6
S2140132904FF00053014A1A6003F01CB902020FF006
S2140132A0034B5868C0F30800003818BF0120704768
S2140132B000ED00E013B50024294801941FF0FCF846
S2140132C0012304220321204601F0F4F820461EF0D3
S2140132D09CFA0122234B0520C3F8442401A91FF0C0
S2140132E0E1F8002839D1204BD3F8F02042F0010252
S2140132F0C3F8F020D3F8FC2042F08072C3F8FC201B
S2140133001A4AA3F55D431A60019B194A03F5D523B2
S21401331003F2FC43B3FBF2F3164A013B13610223AB
S214013320C2F8F0304FF48073C2F804334FF06043B4
S214013330114AC3F8B02F114AC3F8802ED3F8002ED5
S21401334042F48072C3F8002EFF2283F82020D3F8BF
S214013350002E22F48072C3F8002E02B010BD00BF0A
S21401336044CE030000D0035000ED00E0FF03004010
S214013370F8590D00000004E055CEACC50900010067
S2140133804FF06043D3F8802E30B5D20715D501240F
S2140133900B4D8440D5F8FC2042F08072C5F8FC2025
S2140133A0D3F8002E2243C3F8002E53F82020002A1B
S2140133B0F0D003F82010002030BD1120FCE700BF3C
S2140133C000ED00E02DE9F04F9A46564B85B01B788C
S2140133D006460F461546DDF83C909DF844B0DDF8EC
S2140133E05080002B00F09780072A00F296800E9BF3
S2140133F0002B00F09280B9F1000F00F08E80129B36
S214013400B3F5006F00F38980012803D1109B002BD0
S21401341000F08380444B03EB05131B7B002B7ED00F
S214013420424C10220021684628F0FAFA04EB4514B3
S2140134301022A7BB3946204628F0F2FA43F21003C1
S2140134406380BBF1000F03D1E37843F00303E3701D
S214013450364A0E9B02EB451CCCE90193129B69018F
S214013460581E9DF84C30C0F30A0003F003039B0678
S21401347043EA001E53582E48012E00EA03004EEA86
S2140134800003CDF800A0535017D0B8F1000F2ED18D
S2140134909CF8023068F304138CF8023027E0002110
S2140134A0204628F0BDFA4FF444736380BBF1000F49
S2140134B0CED1E37843F03003C9E713230CF1100EA5
S2140134C0CCF80C309CE80F008EE80F006FF003017B
S2140134D0DCF81C20109B61F39F02012FCCF81C2006
S2140134E0CCF8143003D1CCF81890CCF8043000276F
S2140134F00D4A290102EB051342F80180159A284668
S2140135005A60694622469F605E7301F057F8384656
S21401351005B0BDE8F08F0748FAE70748F8E707481F
S214013520F6E700BF7E250020700F0020700E0020F9
S2140135300F80FFF3028000F0018000F0078000F0AA
S21401354038B5124B05461B78DBB1E0B11EF0B4F876
S2140135500F4A00231146147B54B92B6001251A012A
S21401356001EB03131D738C501EF0ACF8204638BDDA
S2140135700133082B02F11002EDD11EF0A3F8054825
S214013580F5E70548F3E70548F1E700BF7E2500208B
S214013590700F0020048000F0028000F0018000F02F
S2140135A038B51EF089F8002305460B4A147B6CB922
S2140135B00133082B02F11002F8D100F0BBFF074BD4
S2140135C028461C701EF07EF8204603E028461EF0B2
S2140135D079F8034838BD00BF700F00207E25002013
S2140135E0058000F00D4B10B51B78044693B10728F3
S2140135F012D81EF061F80A4B03EB04131A7B2AB1AA
S21401360000241C731EF05EF8204610BD1EF05AF80A
S2140136100448FAE70448F8E70448F6E77E25002060
S214013620700F0020068000F0028000F0018000F09C
S214013630154B13B51868002301908DF804301EF061
S2140136403BF8124B1C7824B11EF03CF8104802B02F
S21401365010BD01221A701EF035F80E4B01A81C731E
S2140136601C7783F82C4083F83C4083F84C4083F861
S2140136705C4083F86C4083F87C4008238DF8073063
S21401368000F074FF2046E2E79CCC03007E25002074
S214013690038000F0700F00200A4A08B512785AB16C
S2140136A007280BD8084A02EB00131B7B43B1002105
S2140136B000F04EFF002008BD0448FCE70448FAE786
S2140136C00448F8E77E250020700F0020028000F0F5
S2140136D0018000F0078000F00A4A08B512785AB156
S2140136E007280BD8084A02EB00131B7B43B10121C4
S2140136F000F02EFF002008BD0448FCE70448FAE766
S2140137000448F8E77E250020700F0020028000F0B4
S214013710018000F0078000F00A4A08B5127852B11D
S21401372007280AD8084A02EB00131B7B3BB100F0BE
S21401373091FF002008BD0548FCE70548FAE7054863
S214013740F8E700BF7E250020700F0020028000F001
S214013750018000F0078000F00D4B1B7893B107281D
S21401376012D889B10B4B03EB00131B7B73B10A4BC9
S2140137701A6D01238340134214BF01230023002046
S2140137800B707047054870470548704705487047F5
S2140137907E250020700F002000000450028000F0FB
S2140137A0018000F0078000F00B4A10B512780C4635
S2140137B062B107280CD859B1084A02EB00131B7BEB
S2140137C043B100F059FF2070002010BD0448FCE70B
S2140137D00448FAE70448F8E77E250020700F002029
S2140137E0028000F0018000F0078000F0184B2DE900
S2140137F0F0411F6D5B6D1F4000D5FEE701260025D9
S214013800144CDFF85880374218D02368C8F8506047
S214013810A3B1A168284601316268A1609847637B1D
S214013820012B0BD150B90C4B03EB45131A7B60F3FC
S21401383041021A731A7F60F341021A770135082D87
S2140138404FEA460604F11004DDD1BDE8F08100BF61
S21401385000000450700F0020700E0020002004505D
S214013860024B1968024B186815F036B9402800203B
S2140138706028002070B59400224605460E4628F0C2
S214013880AFFF431C0AD058B922463146284628F0D5
S2140138909DF80028034808BF002070BD0248FCE7D9
S2140138A00248FAE710E000F021E000F024E000F022
S2140138B010B5044628F090FF431C10D088B900F0DC
S2140138C09DFF234620F003002044984201D10020AA
S2140138D010BD53F8042B0132F7D00348F8E703482C
S2140138E0F6E70348F4E700BF0EE000F021E000F041
S2140138F024E000F008B51DF0D8FE014B186008BDA5
S214013900E0160020014B18681DF0D3BEE01600201B
S214013910054B5B69DB0605D51022044B5A61012273
S214013920034B1A70704700BF0080045000A004507B
S2140139307F25002041F67133124A30B5D469124D05
S214013940D3639368A84204F4803423F4401306D862
S21401395093600E4AD2F8183223F002030AE043F4C9
S214013960801393600A4B9842F3D9084AD2F818326A
S21401397043F00203C2F8183214B10022014BDA6395
S21401398030BD00BF00000350005A620200C007505D
S21401399080F0FA022E4B98424AD022D82D4B9842FC
S2140139A040D014D82C4B984239D00AD82B4B984289
S2140139B032D02B4B98422FD02A4B98422CD0002045
S2140139C07047294B9842FAD1284B186F7047284BFD
S2140139D098422AD0274B9842F1D1244BD3F8800045
S2140139E07047254B98422BD009D8244B984223D0B8
S2140139F0234B9842E3D11D4BD3F88C007047214BE3
S214013A00984221D003F5740303F510539842D6D19A
S214013A10164BD3F898007047144B986D7047134BAC
S214013A20586E7047114B586F7047104B986F704720
S214013A300E4BD3F8840070470C4BD3F888007047C0
S214013A400A4BD3F890007047084BD3F894007047A0
S214013A500048E8010024F400C0CF6A0080841E00FC
S214013A6000093D0040420F00405DC6000080E00FA7
S214013A70C0EA210180BA8C01007E560380D543023C
S214013A80006CDC020090D00338B5134B0546D3F822
S214013A9020010C4600F0070004281AD8DFE800F0E1
S214013AA003090D111500012305B1286004B1236037
S214013AB038BDFFF717FB0423F6E7FFF74FFB032399
S214013AC0F2E7FFF765FB0523EEE7FFF75DFB022351
S214013AD0EAE700231846E7E70080005037B50C46B2
S214013AE00021114B0191D3F88031054603F0030301
S214013AF0022B0ED0032B11D0012B03D101A8FFF707
S214013B00C3FF0D210DB1019B2B6004B1216003B0F1
S214013B1030BDFFF73DFB05210190F3E7FFF734FBCE
S214013B2002210190EEE700BF0080005038B5104B2F
S214013B300546D3F840310C4603F00303022B0BD0A5
S214013B40032B0DD0012B0FD11DF0A9FD082305B1C4
S214013B50286004B1236038BDFFF75EFB0723F6E754
S214013B601DF0A0FD0923F2E701230020EFE700BFC7
S214013B700080005038B5104B0546D3F860310C462E
S214013B8003F00303022B0BD0032B0DD0012B0FD117
S214013B901DF085FD082305B1286004B1236038BDFA
S214013BA0FFF73AFB0723F6E71DF07CFD0923F2E752
S214013BB001230020EFE700BF0080005038B5144B0A
S214013BC00546D3F800020C4600F0070004281BD86F
S214013BD0DFE800F003090D111500012305B1286087
S214013BE004B1236038BD1DF05AFD0823F6E7FFF740
S214013BF013FB0723F2E71DF055FD0923EEE7FFF758
S214013C0097FA0C23800AE9E700231846E6E700BF87
S214013C100080005038B5144B0546D3F808020C4610
S214013C2000F0070004281BD8DFE800F003090D1197
S214013C301500012305B1286004B1236038BD1DF0CD
S214013C402EFD0823F6E7FFF7E7FA0723F2E71DF054
S214013C5029FD0923EEE7FFF76BFA0C23800AE9E753
S214013C6000231846E6E700BF0080005038B5104B29
S214013C700546D3F840320C4603F00303022B0BD063
S214013C80032B0DD0012B0FD11DF009FD082305B123
S214013C90286004B1236038BDFFF7BEFA0723F6E7B4
S214013CA01DF000FD0923F2E700231846EFE700BFE9
S214013CB00080005038B5104B0546D3F800310C464D
S214013CC003F00303022B0BD0032B0DD0012B0FD1D6
S214013CD0FFF744FA032305B1286004B1236038BD19
S214013CE0FFF79AFA0723F6E71DF0D7FC0623F2E75B
S214013CF001230020EFE700BF0080005038B50C46D6
S214013D0005461DF0D2FC054B9A6A54402C4054409F
S214013D109C62BDE838401DF0CCBC00BF00C000501E
S214013D20032814D005D8012805D0022809D0002080
S214013D3005E00F28FBD1084B186FC0F301300130A6
S214013D407047054BD3F89000C0F30460F7E7024BC9
S214013D50186FC0F38020F2E7008000501FB50023E3
S214013D600193252817D8DFE800F0131A1D272C36F3
S214013D703B51565B60656A78161A401616561A2726
S214013D802C27361A5127783B3B3B3B2727275B607E
S214013D90FFF7B4F90190019805B05DF804FBFFF751
S214013DA0C7F9F7E7FFF7AAF902460220FFF7B8FFBF
S214013DB0B2FBF0F20192EEE7FFF7BAF902460320F2
S214013DC0F4E7FFF7B5F902460320FFF7A9FFB2FBB8
S214013DD0F0F25208EEE7002101A8FFF77FFEDAE7CE
S214013DE0002101A8FFF750FED5E702934FF0E0232C
S214013DF01B695B0705D5FFF79BF90290029B0193B0
S214013E00C9E703A902A8FFF791FEF7E7002101A879
S214013E10FFF78CFEBFE7002101A8FFF7ABFEBAE76C
S214013E20002101A8FFF7CAFEB5E7002101A8FFF7A8
S214013E30F1FEB0E7002101A8FFF73CFFABE7094B15
S214013E40D3F8803003F00303022BA8D0032B01D054
S214013E5000209FE7FFF79CF99CE7002101A8FFF7E8
S214013E6005FF98E70080005008B50120FFF776FFB0
S214013E70BDE808400349884294BF0121022103207E
S214013E8000F002B880F0FA02032810B50C4627D0DD
S214013E9004D8012804D0022817D010BD0F28FCD161
S214013EA01DF080FC1DF086FC124A013C136F23F4C2
S214013EB0405343EA04331367FFF73AF90021FFF74B
S214013EC039FDBDE81040FFF7CFBF0A4A4C1ED2F8B5
S214013ED0903023F0F85343EA0463C2F89030DCE7ED
S214013EE0044A4C1E136F23F4806343EA842313674A
S214013EF0D3E700BF008000501FB50023019325289B
S214013F0021D8DFE800F013202020202A2F454A4F31
S214013F1054595E7120203420204A202020202A2057
S214013F204520712F2F2F2F2020204F54314B1B6FF0
S214013F3003F00703013B032B05D8DFE803F00C026F
S214013F40080A04230193019805B05DF804FB0323D6
S214013F50F8E70623F6E70223F4E7002001A9FFF7B6
S214013F60BDFDF0E7002001A9FFF78EFDEBE7029308
S214013F704FF0E0231B695B0705D5FFF7D9F80B2344
S214013F800393039BDEE703A902A8FFF7CFFDF8E73B
S214013F90002001A9FFF7CAFDD5E7002001A9FFF718
S214013FA0E9FDD0E7002001A9FFF708FECBE70020D6
S214013FB001A9FFF72FFEC6E7002001A9FFF77AFE49
S214013FC0C1E70C4BD3F8803003F00303022B03D078
S214013FD0032B05D00023B5E7FFF7AAF80B23B1E7BB
S214013FE0FFF7D6F80523ADE7002001A9FFF73EFE4F
S214013FF0A9E700BF00800050024A536A23F001037C
S2140140005362704700C0075008B5FFF775FF0728D1
S2140140100ABF024B4FF6FF70188808BD282A0020F9
S21401402008B5FFF769FF03280ABF024B4FF6FF707A
S214014030188808BD262A002038B50546FFF7AAFCD1
S214014040204B04465A68012A04D11F494A609A69DE
S2140140509207FCD10020FFF74FFF042803D11DF083
S214014060A1FB1DF0A7FB194A24F0407395421FD00F
S214014070174A95421FD0174AD16811F0060FFBD197
S2140140809068936091684B4013F4F81F16D1284648
S214014090FFF72EF80020FFF72FFF042810D1FFF7B7
S2140140A047F80021FFF746FCBDE83840FFF7DCBEC5
S2140140B043F00073DFE743F08073DCE79060E9E7E5
S2140140C038BD00BF00C0015000E0015040420F0063
S2140140D080841E0000000150F8B504460020FFF75A
S2140140E00BFF032800F0818045F60E0302213F4AAC
S2140140F0C2F880303E4B9962012103F580539962E4
S214014100936DD903FCD4D4E900131B0543EA01637C
S214014110E17B94F820500B43217BE77E43EA014381
S214014120617B6D0143EA0133A17B43EA811313618D
S2140141309169D4E904031B0643EA806301F0004158
S2140141400B43A17E94F823000B43217E43EA0143EF
S214014150617E43EA01239361136AE66923F00D0346
S21401416094F8221043EA870366BB1362966A94F8B2
S214014170213045EA031326F033052B4343F00103B0
S21401418093621C4D194A936D35EA0303FBD1022550
S214014190174B9D62936D5B00FCD41369A56823F4ED
S2140141A0700343EA055313614FF00042104B9A61C6
S2140141B019B9022203F580539A6278B901220E4B8F
S2140141C09A620BE0334343F008031362936A23F0C9
S2140141D0330303432B4343EA4103936294F82430A9
S2140141E01BB1024B054AC3F88020F8BD00C0005041
S2140141F000D000500300014000E00050F1A7FFFF8F
S21401420070B5184CFF28A66A2AD8A36D13F4803F10
S21401421018BF0122144B18BF9A6202229A62A56D3A
S21401422015F08045FBD1114AA36992F9002023F4C9
S2140142307F03024423F47F4382F3080243EA002308
S21401424043EA0243A36131460220FFF757FDA36DFF
S214014250DB0303D531460120FFF750FD284670BD2C
S2140142602125FBE700C0005000D00050802500202B
S214014270014B93F900007047802500200123124866
S214014280124A816A9362836D03F00303032BFAD10A
S214014290022393620C4A936D5800FCD40C48936D2C
S2140142A030EA0303FBD10122084B1A65A3F58053BC
S2140142B09A6D9207FCD49A6D9007FCD59A6D920779
S2140142C0FCD50320FFF71ABD00C0005000D00050F7
S2140142D003000100F0B5D0E901434FF4D15602279F
S2140142E0164A417805785662154E4F2977604FF089
S2140142F0010728BF4F2106F5805677601669F60339
S214014300FCD441EA052151611B01417B43EA0423A8
S2140143100B43017B43EA41039360C37B817B1B0113
S21401432043EA4113417C0B43017C43EA410353605A
S214014330837C13B16FF4D1535362F0BD0000025079
S21401434000100250014B1880704700BF282A002039
S214014350014B1880704700BF262A0020284B984240
S21401436042D01AD8A3F5B703A3F55863984237D0BD
S2140143700CD8244B984225D0234B98422AD0234B65
S214014380984217D00023224A93607047214B9842E7
S214014390F8D1214BD3F8BC301FE0204B984227D0F0
S2140143A01F4B984228D01F4B9842EBD11A4BD3F89B
S2140143B0C83012E0184BD3F8A03023F0407343F016
S2140143C00073E0E7144BD3F8A03023F0407343F0BA
S2140143D08073D8E7104BD3F8A03023F04073D2E7B0
S2140143E00D4BD3F8B830F8E70B4BD3F8C030F4E7F1
S2140143F0094BD3F8CC30F0E7074BD3F8D030ECE7D5
S214014400C0EA210180841E0000093D0040420F00E1
S2140144100040015A0024F4000080E00F0048E80143
S214014420005A620280BA8C010C4A10B51369044620
S21401443043F00403136103F09DF91DF0D3F9084B13
S214014440084AC3F8202430BF1DF0CDF903F0B4F9B3
S2140144501CB9BDE81040FEF76BBE10BD00ED00E0D4
S21401446000E003500000FFFF0A4A10B51369044636
S21401447043F004031361084B084AC3F8202403F0F1
S21401448079F930BF03F098F91CB9BDE81040FEF782
S2140144904FBE10BD00ED00E000E003500000FFFF3E
S2140144A0034A0179D36E23F030030B43D36670477A
S2140144B000400050F8B504460D461F4616464AB160
S2140144C001238B403021184A01FB0022F7B141F24B
S2140144D01001535004EB4403072D4FF00F014FEA30
S2140144E0031316D8A80006FA00F281400F481844B4
S2140144F01DF07CF94EB9012330210B4AAB4001FB7C
S214014500042277B141F210015350F8BD42F2100176
S214014510DFE7A5F10800800006FA00F281400448B2
S214014520E5E742F21001EFE700C0035004C0035074
S2140145300CC0035008B5152001F0DEFF0022FF2154
S214014540024B5A6599625A6008BD00BF00000450CC
S214014550044A054B002908BF1346012282401A600F
S214014560704700BF401004504020045010B5044668
S214014570417802780120104B120658609A60A278A2
S214014580152042EA01429A61FF229A6200229A634A
S2140145901A644FF000425A654FF0FF3203F500539C
S2140145A01A6501F0C9FF1520E17801F0D3FFBDE8D7
S2140145B01040152001F0B2BF00000450F8B50125E7
S2140145C0C3B2DFF88CC0D1F800E09D408F7ACB7A79
S2140145D00C46097BCCF850500CF5005C4CF820E0FA
S2140145E04FF0300E184E1B050EFB006094F80DC000
S2140145F043EA074343EA415322F00302C0F860C08E
S214014600C36502671DF058F8104B5D65237A13B138
S214014610336C2B433364637A13B1B36B2B43B363AD
S2140146202279A37943EA0243094A93616179E379DE
S21401463043EA014305498B61034B55639D64BDE81D
S214014640F8401DF03FB800BF0000045000100450B1
S2140146500020045010B50124C0B284401DF02CF88F
S214014660044B5A6D22EA04025A659C62BDE810406A
S2140146701DF028B80000045010B50124C0B28440D3
S2140146801DF01AF8074BDA6A224208D15B6B9C438D
S2140146900CBF012400241DF015F8204610BD00248F
S2140146A0F9E700BF0000045041F67132034BDA63AC
S2140146B0012203F50053DA60704700BF0000035083
S2140146C041F671320121044BDA6303F50052D160E1
S2140146D00022DA63704700BF00000350CB784A78A7
S2140146E010B55B010C7843EA82030A79234343EA57
S2140146F002130C22424302F1B0421363012C02BFA3
S2140147008A78024B43F8202010BD00BFD0800350AA
S21401471008B54FF0B0435A686AB958B15B680BB137
S2140147201DF074F801210D4B59601DF06FF84FF024
S214014730B043D96008BD5B680BB11DF067F800286F
S214014740F0D11DF063F84FF0B0430222DA601DF09D
S2140147505DF80122024B5A60ECE700BF00100058DA
S214014760002000584FF0B0414B6810B50BB11DF05A
S2140147704DF801220B4BC4785A608378934043EA84
S214014780840344782343047943EA0413447943EACF
S214014790C4038B60044B5A600378C3F10203CB60F9
S2140147A010BD00BF0020005800100058054B5B6983
S2140147B0C3F38512827003F03F021B0B4270037035
S2140147C0704700BF00C0075040F6B732064B5B6823
S2140147D09BB293429FBF4FF47A72B3FBF2F3034A44
S2140147E0D05C88BF002070470080E00FC1CC03007A
S2140147F0014B986CD96C70470080E00F0120034B89
S2140148009B680A3303F01F03984070470080E00F4F
S2140148100D4B984208D1A3F50033C3F88411C36D3C
S21401482043F08003C3657047084B984204D1A3F553
S2140148301033C3F89411F2E7054B984204BFA3F571
S2140148402033C3F8A411EAE70080055000C00550E4
S2140148500000065070B5054616461C4619B90320D9
S214014860FFF77CFA0146402C1BD003D8DCB1202C84
S2140148701BD070BD602CFCD1042303FB06F2530849
S21401488003EB4113B3FBF2F3094A203B02EAC303ED
S214014890AA6822F06002AA60AA681443AC60EB61C1
S2140148A0E7E70623E9E71023E7E70823E5E700BF84
S2140148B0F8FF7F00012200F580535A6040F6AA6394
S2140148C041F20502436100230D498360C365C2605E
S2140148D000F500520361C361C364916409498365AD
S2140148E0884203D103650023436506E006498842F2
S2140148F0F8D001F580418842F4D001235360704717
S214014900FFFF01000080055000C0055070B50D4640
S214014910FFF7D0FF012300F580567360AB7C044699
S2140149201BB1836843F080438360EB7C1BB1204658
S214014930297DFFF76DFF2A8A6B7B20461343EA89A0
S2140149401343E3602B7BD5E90112FFF783FF6B7DF1
S2140149501BB1A36843F48033A360AB7D1BB1A3688E
S21401496043F40043A360EB7D2A7E1B07120502F485
S214014970E00203F0E0431343A365697E1F4A8B1EE2
S214014980012B1F4B1DD8944217D002F5804294424A
S21401499015D002F5804294420CBF02224FF0FF323E
S2140149A003EB4213022041F2AC520329985020D166
S2140149B00423F3652B78636170BD0022F0E70122C2
S2140149C0EEE7944211D00F4A944210D002F580428D
S2140149D094420CBF02224FF0FF3203EB4213022037
S2140149E042F2AC5201299850E1E70022F5E7012294
S2140149F0F3E7042204F50053DA65DBE7008005508F
S214014A0000C0035000C0055038B50446054D26F0D9
S214014A1091FA0FCC0FC594E80F0085E80F0000202F
S214014A2038BD00BFE416002047F6FF739A42F0B582
S214014A3072D0022972D83A4B5B5C022B6ED8394D84
S214014A40DF0005EBC304A17815F83330012938BF20
S214014A500121012B13D10025E078401AA84202D883
S214014A600844C0B2F0BD431B6668A0EB530336F999
S214014A7013609642D4BF1D4603F1FF30EEE760682F
S214014A800028EFD0B0F90040944204DBB0F90240B0
S214014A909442B8BF144683883D44FF2B19BFC822F1
S214014AA04FF0280CB0F90620B0F908C0A2EB0403B9
S214014AB00CBF0126002693FBFCF333446E781BB231
S214014AC09E4201DD002B01DA731E1BB24FF47A7C85
S214014AD001339BB2071D5D1E2DB24FEAC50E00EBDA
S214014AE0C505EA88AD689E4214FB025222EAE272CC
S214014AF002F15C02B2FBFCF204DD37F833500133FD
S214014B009542E8D200EB0E039888904228BF1046E3
S214014B10884238BF0846A4E7FF20A3E70020A1E7A4
S214014B20C4CC0300E41600200229F0B560D8314B4E
S214014B30595C02295CD8304B13F83100012816D194
S214014B4003EBC1039C78D878012C214638BF01219C
S214014B50904294BFC1EB0001C1EB0201001BCAB237
S214014B608242C8BF00225B6833F91200F0BD002AFA
S214014B703CD003EBC1035968002939D0987890429C
S214014B8002D3B1F90200F1E7DC78B1F900009442F2
S214014B90ECD95C788B88013CA3F1FF06734201F1E6
S214014BA00405E4B2734101F10C07DEB2B44216D833
S214014BB005EBC3034FF47A756A43B3F902405B68A9
S214014BC0D21A04EBD47302EB630292FBF4F2904226
S214014BD0CCDBB1F902009042C8DC10B2C6E737F868
S214014BE033C05E1C9445E3D33346DEE70348BDE796
S214014BF00348BBE7C4CC0300E41600200CFEFFFF0D
S214014C000080FFFF08B50448FFF7FEFEBDE8084038
S214014C10012026F093B900BFC8CC030000487047B6
S214014C202A2A00207FB50222084B0949CDE9012333
S214014C304FF00073CDE90313052301A94FF0FF30B0
S214014C40059326F0ABF907B05DF804FB006A18007F
S214014C50000204002DE9F0418CB08846DDE91276A9
S214014C601D460446002847D0002945D0002F43D0D2
S214014C70002E41D013F00F033ED120482049A360F7
S214014C80002A08BF0146E361C4E90013404609A9AA
S214014C901CF0EBFE68BB204609991DF02AF8294650
S214014CA020461DF026F8694640461CF08CFF00BBE6
S214014CB0694620461DF009F8404603A91CF08EFF00
S214014CC0B8B9204603A91DF000F80697012720462B
S214014CD045F0005506A9079708951CF0F6FF2046F3
S214014CE009A909960A970B951CF0F9FF20461CF0B6
S214014CF0EAFD0CB0BDE8F0812120FAE700010004CE
S214014D00000101042DE9F0418CB0884616461D4687
S214014D100446129F00284BD0002949D0002A47D0CC
S214014D20002F45D00B68103B102B41D8214A22FAA0
S214014D3003F3D9073CD500231F4A8360C0E900234B
S214014D40C36109A940461CF090FE70BB2046099934
S214014D501CF0CFFF294620461CF0CBFF6946404693
S214014D601CF031FF08BB694620461CF0AEFF4046EA
S214014D7003A91CF033FFC0B9204603A91CF0A5FF08
S214014D8006960126204606A945F000550796089581
S214014D901CF09BFF094B204609A909970A960B931D
S214014DA01CF09DFF20461CF08EFD0CB0BDE8F08186
S214014DB02120FAE701010100000004041000002090
S214014DC0F0B50C4617461E46054695B0002874D029
S214014DD0002972D0002A70D0002B6ED0036B0F2BE7
S214014DE05BD80023364A3846C4E90023A360E36152
S214014DF011A91CF03AFE00285BD1204611991CF03F
S214014E0078FF296B20460F2984BF01F00F0110316E
S214014E101CF06FFF384602A91CF0D5FE002848D1C9
S214014E20204602A91CF051FF384605A91CF0D6FE03
S214014E3000283ED1204605A91CF047FF0122214B40
S214014E40089509920A932B6B05F1100003F00F01E8
S214014E5041F000510B900F2B0C920D910E900F927A
S214014E6043F00052109226D90A9B08A923F000535A
S214014E7020460A931CF029FF0BA920461CF025FFAB
S214014E800123119612930F4B204611A913931CF080
S214014E9026FF20461CF017FD0BE000F120030190D1
S214014EA000930122102339462046FFF7D3FE00283F
S214014EB097D015B0F0BD0EA9DFE72120F9E700BFB6
S214014EC000000404100000202DE9F04F9BB00C46B2
S214014ED090461F460546DDF89090002800F0B28007
S214014EE0002900F0AF80002A00F0AC80002B00F013
S214014EF0A980026B02EB09031B09B3EB121F02F038
S214014F000F0600F0978000234F4A8B60C1E900230B
S214014F10CB61404617A91CF0A8FD0346002840F0C7
S214014F20858006EB090B204617992BF00F0A1CF01B
S214014F30E0FE514620461CF0DCFE404602A91CF06D
S214014F4042FE0346002871D1204602A91CF0BDFE90
S214014F50404605A91CF042FE0346002866D14FF0E4
S214014F600108019005A920461CF0AFFE374A2046ED
S214014F7008A90895CDF824800A921CF0A6FE46F0F2
S214014F800051AAEB060605F1100346F000560B93F6
S214014F90CDF830800D910E97CDF83C8010960D9986
S214014FA0204621F000510D910BA900931CF08DFEB7
S214014FB020460EA91CF089FE019B244A1193AAF1F2
S214014FC0100343F00053CDF84880139305F12003F6
S214014FD01493CDF854801692139B204643F08043D9
S214014FE01393139B11A923F0005313931CF077FE20
S214014FF0204614A91CF073FE144A17A920461795DB
S214015000CDF8608019921CF06AFE20461CF05BFC0D
S214015010AAEB0B0149440190ABEB0A020098394414
S21401502026F009FD019B2A6B4A442A6318461BB0E9
S214015030BDE8F08F10304A463946304426F0FBFC76
S2140150400023F0E72123F1E703020004100000200B
S2140150502DE9FF474FF000080E4617460446CDF8E7
S2140150600080002859D022B90025284604B0BDE8A2
S214015070F087002951D032F0030902F0030A1FD04D
S2140150804FF0E063C0E9003801230191C0F80880C1
S2140150900293C0F81C8049F0005301A903931CF049
S2140150A01EFE494620461CF024FE20461CF00BFC42
S2140150B0054628B14A464146304626F0B1FCD4E7BB
S2140150C0BAF1000FD0D04FF000084FF0E063C4E90A
S2140150D000380123CDF804D00293114B204601A9D4
S2140150E0C4F80880C4F81C8003931CF0F8FD042162
S2140150F020461CF0FEFD20461CF0E5FB054608B1E7
S2140151003A46D8E7009A4E44EB00013522FA03F3FB
S214015110AA4506F8013BF7D1A6E72125A5E700BF7A
S21401512004000020F0B50F4616461D46044693B00F
S21401513010B9212013B0F0BD0029FAD0002AF8D00A
S214015140002BF6D0002331461A4638461CF032FCB6
S2140151500028EFD1304602A91CF0D7FB0028E9D180
S21401516038683449029A88426B695ED19342E0D32B
S2140151702B68002BDDD14FF060623846C4E900236E
S214015180A360E36101A91CF070FC0028D2D101994B
S214015190204621F4F06101911CF0ABFD69462846DA
S2140151A01CF063FC0028C5D1204600991CF0A1FD27
S2140151B0384609A91CF007FD0028BBD1204609A9DD
S2140151C01CF083FD38460CA91CF008FD0028B1D15F
S2140151D020460CA91CF079FDEB684BB1284606A9C0
S2140151E01CF0F1FC0028A5D1204606A91CF06DFD97
S2140151F0304603A91CF0F2FC00289BD1204603A9E7
S2140152001CF063FD28460FA91CF0E8FC002891D18C
S21401521020460FA91CF063FD032520461CF053FB16
S214015220012887D1013DF8D184E7B3EB420F9FD225
S2140152307FE700BF200000B070B50E461546044655
S2140152408AB000285CD000295AD0002A58D0012301
S21401525029461A4630461CF0ADFB00284ED1B368ED
S21401526013F4C04F4CD0AB6803F4C043B3F5005FF2
S21401527046D1254BA060C4E90030E06107A930465D
S2140152801CF0F3FB002839D1204607991CF031FDAC
S214015290012302934FF00053204601A903931CF00B
S2140152A014FD304604A91CF099FC38BB204604A91D
S2140152B01CF00BFDEB681BBBAB6803F4C043B3F5F6
S2140152C0005F1DD1694628461CF042FBB0B9009B21
S2140152D06A699A4216D32A6943F00053079201225B
S2140152E0204607A90892032509931CF0F8FC2046DE
S2140152F01CF0E9FA012801D1013DF8D10AB070BDD0
S2140153002120FBE71D20F9E7000001021FB5044636
S21401531098B191B100230A4A8360C0E90023C361B2
S214015320012301910293074B01A903931CF0D7FCBB
S21401533020461CF0C8FA04B010BD2120FBE700BFD0
S214015340000008430400002006289ABF014B185CA1
S21401535000207047B4CD030030B5154B87B00293DB
S214015360144B0390049346F611030D46059300F083
S21401537077F91428044616D168461CF070FD4FF0E4
S214015380A843032202A95A6319601D619A63DA6B66
S2140153909207FCD1142C02D168461CF06EFD00F079
S2140153A08FF9044601E00028E9D0204607B030BD59
S2140153B004170020040000202DE9F04FB1B0054687
S2140153C08C469E46E8466F4EDDF8EC90409C06F112
S2140153D0100A474630687168083603C75645B8460E
S2140153E0F7D13E9B03EB0208C8F1000A0AF00F0A48
S2140153F0B9F1000F00F09D80C9F1000707F00F0713
S2140154000121DDF8FCB044F00050C4F11006CDF8DF
S21401541010B005910690300200F4F85040F02100DB
S2140154200790B9F1000F40F08680CDF820D047F004
S2140154300050002D00F08480099121210A9041EA54
S21401544007210B9142F00050CDF830C03D9B08A9D2
S2140154504FEA0A2C0D910E904CF041000F901093DC
S214015460002A75D13E9B119143F0005312933C9B49
S2140154701390149310AB1593434B444A169340F67E
S21401548011031793424B0021002D08BF13461893B2
S21401549014AB19933F4B10221A9311231B931CAB89
S2140154A0184626F0BDFA01221D92002246F08046DB
S2140154B003461E96239205B9EB46102CCDF880B014
S2140154C024AE4BD10123224600213046219322945B
S2140154D026F0A6FA20AB002125938F4218BF33464B
S2140154E047F0804226923A9A2CA828922993B2FA3B
S2140154F082F35B0949EA837310222B912A9326F0E3
S2140155008FFAB9F1000F00D028AED04448F080439E
S2140155102CA918A82D962E93FFF71EFF30B92DB98A
S2140155200346A34225D1002818BF2C2031B0BDE880
S214015530F08F102764E7CDF820E049F0005078E7B7
S214015540002C3FF479AF04A9099101210A9076E76E
S2140155503E9B0CAA11924120129388E7102200214B
S21401556030462193229426F05BFA002CB2D1012317
S214015570B1E703F1C0026A4412F8C02C01331043AC
S214015580CFE700BFBBCD030010000020D0CD030045
S214015590D4CD030004000020F0B5C0299FB0DDE99A
S2140155A0244557D0B1F5807F04D0802948D02920E2
S2140155B01FB0F0BD01265CB140F2344702941024BE
S2140155C003960494212401970594069502AC0AE0FB
S2140155D040F214470294102403960494212405945F
S2140155E0012401970695079401251024089409952E
S2140155F00A9221220B950C940D92174A0AAD0E922F
S214015600164A0F95109242F61102119212931395B3
S2140156101494159201AA1692D3B112AB17930423D0
S21401562018931123199316AB1A901B9340F6110386
S214015630C9081C911AA806A91D93FFF78DFEB7E7A6
S214015640012614B94FF48267C4E74FF48667B5E7BD
S2140156500EABE3E70F20ABE7CCCD03001000001044
S214015660144A38B5D2F8803243F00103C2F88032CA
S214015670114B5B68C3F3080343B14FF0A842D36BE9
S21401568013F0430FFBD11424204638BD4FF0A84336
S214015690DC6B14F04304FBD1084D2B681BB90421C5
S2140156A0284602F06BFF2B68013343F000432B6062
S2140156B0EAE700BF0080005000ED00E0041700207C
S2140156C0014B00205B68704700ED00E0012300F00D
S2140156D01F02A0F506200949A0F550604009934035
S2140156E051F820201A4341F82020054951F820207E
S2140156F022EA030241F82020704700BF1C17002051
S214015700081700200121A0F506230E4AA3F55063D1
S2140157105B0900F01F00814052F82300014342F864
S21401572023100949D1E90030034488680344C86856
S214015730096903445B1802BFC2E90033C2E90233B8
S21401574013617047081700201C1700202DE9F04F41
S214015750A9B003921D4604460822339ECDE90401F2
S214015760414021FA02F34B40980702F1080218BFA4
S2140157709B00202A1C44F4D18123B4FBF3F303EBF2
S214015780C313E41A734B04F506241B7804F550641E
S214015790002B3ED1FEF764F8074620B16FF091006A
S2140157A029B0BDE8F08F0146402208A826F038F956
S2140157B04022394618A826F033F9DFF8B481DFF81D
S2140157C0B491C3460BF10F0ACDF800A0102208A928
S2140157D05B46D9F8000025F05EF90022014608F183
S2140157E0100808AF914246D1CDF800A05B461022C2
S2140157F0D9F8000018A925F057F94FF0000A83469A
S21401580018AFD34541D1544B9845DAD10122514BBB
S2140158101A704FF0810A4FF00008DFF85CB1A4F56A
S2140158200627A7F550635B095BF8232004F01F01E8
S214015830CA40D2073DD4494A52F82330CB40DB0751
S2140158402AD5B8F1000F08BFA0468123A7F6FF4767
S214015850B7FBF3F303EBC313FF1A07F50624BAF1FC
S214015860010A04F55064DAD1039BBBB1B8F1000F0D
S21401587014D0444619E057F8040BCDE90612FFF799
S21401588025FF079A06990132ACE757F8040BFFF794
S21401589039FF0AF1010AB4E7039B13B96FF08B00D5
S2140158A07EE7B8F1000F18BF4446349B00201C6009
S2140158B076E7329B13B10023329A13600EB10023B0
S2140158C033601023DFF8AC9000932A46002321466C
S2140158D0D9F8000013F072FA60BB32992A68204B9F
S2140158E0C9B99A4206D02146D9F8000013F0FEFA4B
S2140158F00028D3D1D5E90223DDE90410834208BF8D
S2140159008A42A2D1039B002BCFD06B68012BCCD14E
S2140159106FF0840044E7102032999A420860E2D181
S214015920002EE7D033462146D9F8000018AA13F016
S21401593099FA48B10B4B9842D5D00B4B9842D2D02E
S2140159400A4B9842D6D029E7329A336812689B1AD6
S2140159503360CFE78125002000710800081700207A
S214015960105D175EFFDF00F011E000F0FEDF00F0D3
S214015970006D0800602800201C1700202DE9F04F5C
S21401598087B08246894698461646DDF840B02AB169
S214015990002B4FD040F26C739A424ED8BBF1010FE8
S2140159A04ED8002406F110073946012005941DF053
S2140159B09EF80546002846D021463A4626F030F89D
S2140159C005ABCDE9014300942B46012250464946DA
S2140159D0FFF7BCFE044680B110F18C0F08BF6FF0D4
S2140159E08D043A460021284626F01AF828461DF06E
S2140159F060F8204607B0BDE8F08F144BC5E902A950
S214015A002B60C5F804B02EB13246414605F11000B0
S214015A1026F011F8059E0E483B462A463146006898
S214015A2013F034F918B93046FFF750FED9E76FF096
S214015A309104D6E76FF08604DBE76FF09104D8E7B0
S214015A406FF08504D5E76FF08C04D2E7105D175E22
S214015A50602800202DE9F0438DB08146DDE91478F9
S214015A600E4615461C469BB1B8F1000F05D16FF0E6
S214015A70860630460DB0BDE8F083002FF7D0B7F1AB
S214015A80005FF4D3C3F1005303F5C0339F42EED851
S214015A901022002108A825F0C3FF002207AB0293BD
S214015AA005AB019306AB31460093484608ABCDE9FA
S214015AB00522FFF74BFE06460028DAD1059BA4B166
S214015AC0AB4215D853EA0504D1D1069B0B48C8F85A
S214015AD0004000943A46079900682B4413F06EF98B
S214015AE0002818BF6FF09106C3E7AB42EDD2BEE7C0
S214015AF05B1B9C4228BF1C46E7E700BF60280020CE
S214015B0030B58DB00C4605461022002108A825F0B8
S214015B1087FF002207AB029305AB019306AB214634
S214015B200093284608ABCDE90522FFF70FFE044691
S214015B30D8B9099B012B1BD0079D104B2946186825
S214015B4013F0D4F9B8B90122A5F506230C49A3F53B
S214015B5050635B0905F01F00824051F82300424064
S214015B60284641F82320FFF7CDFD20460DB030BD75
S214015B706FF08404F9E76FF09104F6E760280020DF
S214015B801C1700202DE9F04F93B00446DDE91E7581
S214015B90DDE920689346DDE91C028A46DDF8889037
S214015BA029B96FF08604204613B0BDE8F08FBBF12B
S214015BB0000FF6D00FB9002DF3D108B9002AF0D1A5
S214015BC016B9B8F1000FECD1B9F1000FE9D02C4AA3
S214015BD0934251D12388B3F5105F4DD12022002185
S214015BE002A825F01DFF202200210AA825F018FF93
S214015BF002A81BF07BFE10B16FF09204D3E720469B
S214015C005A4651460AAB1CF09AF904460028CAD1F6
S214015C100A981CF088F904460028C4D115B9C9F8B9
S214015C200050C0E7B74224D27B199E4221D2454597
S214015C30B7D839462A46304625F0D8FE374615F0FD
S214015C400F0AAED1CDE900762B4652460AA902A824
S214015C50FFF700F807460028E1D042465146304695
S214015C6025F0DEFE012FC9F800A0C5D16FF08B0428
S214015C7099E74545E3D994E76FF0850493E700BFBC
S214015C80004440042DE9F04FB3B00C460546002110
S214015C90164602A8202298463C9FDDF8009125F082
S214015CA0BFFE202200210AA825F0BAFE20220021EC
S214015CB012A825F0B5FE202200211AA825F0B0FE74
S214015CC000213C2223A8229125F0AAFE34B12EB150
S214015CD027B13E9B13B1B9F1000F05D16FF08604D1
S214015CE0204633B0BDE8F08FB4F800B0B4F802A097
S214015CF00BF4E043B3F5804FF0D0384B384A2B40D5
S214015D0043F01063934202D06FF08504E8E70AF18E
S214015D100703B8EBD30F4FEAD305DFD33F9B9D4272
S214015D2058D81AA81BF0E2FD10B16FF09204D7E71D
S214015D30002301A91AA80193FFF7E8FA0028F4D175
S214015D40019B284A23F07F4393420193DCD947F213
S214015D5012139B45D8D1BAF5807FD5D1224B013796
S214015D600A933D9B0D90023323F003030F934023C8
S214015D7017936B000E9715901393204642463146B3
S214015D8022AF02AB16971CF0DAF804460028A7D11A
S214015D900C9B129043F400531AA80C931BF0A6FD1B
S214015DA00028C2D112AB0AAA02A91AA8FFF7BAF9AB
S214015DB0064610B1482891D1A6E72A4639463E98AC
S214015DC025F039FE3346BB550136402EFBD1C9F8C6
S214015DD0005085E76FF0890482E700BF0000FFF6F8
S214015DE0000002090102010020000080F8B51346F8
S214015DF042880C460732072A4FEAD20101D0A14257
S214015E004DD146680588C76820221846002125F02E
S214015E1007FE360A0346002E44D1002C3FD041F23D
S214015E200102954205D0B5F5885F02D0B5F5905FC1
S214015E3002D15C60002011E0B5F5105F07D1182C87
S214015E4003D0202C01D0102C29D11C60F1E705F4D9
S214015E504F42B2F5824F02D06FF08500F8BDEAB22C
S214015E60122AF9D1202CF7D1104A25F0FF05B5F5F5
S214015E70E24F02600CD0B5F5824F10D14FF40052BC
S214015E8017F4705F09D017F4864F04D09A60E3E7E1
S214015E904FF48042F4E742F480629A60CAE76FF0FA
S214015EA08600DBE76FF08B00D8E700BF200000809C
S214015EB02DE9F04F9A460388144603F44F42B3B0D7
S214015EC0B2F5824F0F46DDF8F89002D06FF08500EC
S214015ED056E011B96FF0860052E0002CFAD0B9F105
S214015EE0000FF7D0DAB2122AF0D123F0FF03B3F590
S214015EF0E24F34D14388C9F800305BBBE300C9F8F0
S214015F000030B3F5807FE1D10023184655493D198D
S214015F10214411F8016D15F8012D1043921B0CBF99
S214015F204FF0FF360026AF4203EA060343EA0203B8
S214015F30EFD10028CED0002BCCDA3C9B9C4200F25D
S214015F408E8022463946504625F075FD3D9B002041
S214015F501C6015E0DA1DB4EBD20FD2D0BAE7B3F568
S214015F60824F79D10B78042BB4D12022002101A8CD
S214015F7025F056FD01A81BF0B9FC20B16FF0920088
S214015F8033B0BDE8F08F0090694601A8FFF7BEF96F
S214015F900028F3D1009B344A23F07F43934295D9DE
S214015FA04FF000083E22414622A8CDF8848025F015
S214015FB037FD01234FF0420B2022414609A88DF8F8
S214015FC08430651E25F02CFD7B1C2022414611A83D
S214015FD00D9321AE0E9525F023FD2022414619A8EA
S214015FE01596CDF858B025F01BFDEA005208B2F51B
S214015FF0807FCDE91D6BC9F800200BD003D8E02ABD
S2140160003FF464AF66E7B2F5C07F3FF45FAFB2F529
S214016010047FF5E7154B09AA099311934FF4005332
S2140160200B934FF480431393402311A91A9301A8AD
S21401603019ABFFF777F8D9F800300733DB085A00B9
S21401604033B1531E013B86F8008006F10106F9D2F2
S21401605000283FF472AF3DE76FF0960090E76FF0CF
S21401606089008DE7D8CD03000102010020000080E1
S2140160702DE9F04F8FB0DDF8608081460C469246E0
S2140160809B461A9FB8F1000F05D16FF08604204693
S2140160900FB0BDE8F08F002FF7D00028F5D02022F2
S2140160A0002106A825F0BCFC06A81BF01FFC10B1B9
S2140160B06FF09204EBE714F47C1FC4F305452AD075
S2140160C0102DE2D8199B9D4233D81D4B24F47E1423
S2140160D09C4231D1002302AECDE90233CDE904332F
S2140160E052465B464946009606A8FEF70BFE044656
S2140160F098B92A463146404625F09DFC234633553D
S2140161000134102CFBD100243D6006A81BF0F8FBDF
S2140161100028BCD0CCE71025D4E7212806D00128DA
S21401612014BF6FF092046FF08B04EEE76FF08604F5
S214016130EBE76FF08904AAE76FF08504A7E700BFD5
S2140161400002C00370B50E461446054610B96FF03E
S214016150860070BD0029FAD03822002125F060FCA7
S214016160094B24F47E129A420AD13388B3F5105FA4
S21401617006D1C4F30543102BE9D800202C60E8E7CC
S2140161806FF08500E5E700BF0002C003F0B50F46DB
S21401619016461D4604468BB088B302B97BBB202247
S2140161A0002102A825F03CFC02A81BF09FFB20B1B1
S2140161B06FF0920420460BB0F0BD2368114A23F419
S2140161C07E13934215D135B9002402A81BF098FB23
S2140161D00028EFD0ECE733463A46009502A9201D89
S2140161E0FEF772FE012807D00028EDD06FF092046A
S2140161F0EBE76FF08804E8E76FF08B04E5E76FF0F4
S2140162008604D7E70002C0032DE9F0418CB088462A
S21401621016461D460446129F002840D0002A3ED04E
S214016220002B3CD0002F3AD0102B036828BF102536
S21401623013F47C1FC3F3054202D0954228BF1546CE
S2140162401A4A23F47E1393422CD12022002104A85B
S21401625025F0E6FB002304A8CDE90033CDE902339F
S2140162601BF044FB40B96B46424604A9201DFEF7CD
S214016270A7FD30B100233B606FF092000CB0BDE883
S214016280F08104A81BF03CFB04460028F2D12A4604
S2140162906946304625F0CFFB20463D60EEE76FF0BD
S2140162A08600EBE76FF08800E8E700BF0002C00356
S2140162B00023C36001F13803036120230A684361A8
S2140162C08B6D0B4922F47E128A42436003D001F59E
S2140162D080718A4208D1102B01D0182B02D103609D
S2140162E000207047202BFAD06FF08800704700BF5F
S2140162F00001C00330B58BB06D46604C0FCC0FC5A6
S21401630054F8043B68462B604FF07E6393F89C304C
S2140163106D46FF2B08BF25238DF80130FDF7DAFF08
S2140163203220FEF70FF80FCC0FC50FCC0FC594E83F
S214016330030085E80300524BD3F84C21110340F1CA
S2140163408380A3F5FE431C884FF6FF739C4208BF6B
S21401635081248DF81940FDF78BFF044484F308046B
S21401636048488DF81840FCF7FFFE6846FDF7B4FE76
S2140163703220FDF7EDFF444C4448FDF75DFE4448EE
S214016380FDF7ECFF1BF01AFA236F002023F007033A
S21401639043F002032367236F23F4505343F48063CF
S2140163A023671BF012FA3B4BD3F8FC20D2014FD4E3
S2140163B0D4F8803023F0030343F00203C4F880309E
S2140163C0314BD3F8202122F0070242F00102C3F834
S2140163D02021D3F8802122F0030242F00102C3F803
S2140163E08021D3F8402122F0030242F00202C3F8D2
S2140163F04021D3F8602122F0030242F00202C3F8E2
S2140164006021D3F8402222F0030242F00202C3F8D0
S2140164104022D3F8002222F0070242F00202C3F81B
S2140164200022D3F8082222F0070242F00202C3F843
S2140164300822FDF7E1FD4FF0E0220020136963F02A
S214016440040313610BB030BDD3F85041E4B280E7CA
S214016450D3F8FC2022F08072C3F8FC20D4F8802008
S21401646022F0030242F00202C4F88020D3F8FC2096
S21401647042F08072C3F8FC20A2E700BFF8CD03000B
S2140164800080E00F00F049020080005000B4C40410
S214016490C0EA210100ED00E06FF00403502110B5C1
S2140164A00A480B4C13F0800F03F1010206D1234476
S2140164B03D2A83F800131346F4D110BD03F00F03F1
S2140164C0043B034419761346ECE700BF00ED00E0F9
S2140164D000E100E0BFF34F8F0549064BCA6802F49E
S2140164E0E0621343CB60BFF34F8F00BFFDE700BFF1
S2140164F000ED00E00400FA0500280CDB0122064945
S214016500430900F01F008240203341F82320BFF3E7
S2140165104F8FBFF36F8F704700E100E0002807DB65
S21401652001234109034A00F01F00834042F821304D
S214016530704700BF00E100E0002808DB01224309A4
S214016540034900F01F008240603341F82320704762
S21401655000E100E00028ACBF00F16040064B4FEAC6
S2140165600111C9B2ABBF00F5614000F00F0080F821
S21401657000131954704700BF14ED00E010B504462F
S2140165801BF093F8024B1C601BF093F8002010BD23
S2140165903017002010B51BF088F8034B1C681BF061
S2140165A088F8204610BD00BF30170020034B02229A
S2140165B0186800238068194619F03ABE6829002039
S2140165C030B51446054687B010461CF08EF8636950
S2140165D0024683423CBFD4E903315B181B1A7BB1E8
S2140165E00F49049403910021CDE901310123009361
S2140165F02846D4E900131BF086F8002007B030BD0A
S2140166000122627694F82D20002AF6D084F83530DF
S2140166101321E369204698472046636A9847ECE7CA
S214016620C16501002DE9F04788B004460F461646BD
S21401663098461BF041F88146002E7AD0237E03F05F
S214016640FF02002B00F0A28020461CF04EF8656980
S214016650A84205D1637ED4E9033213445D1B01E0F1
S214016660F9D9451BB54228BF35461BF025F894F8E5
S2140166702D308246002B6DD12A463846616925F0B9
S214016680DAF963692E462B44636121E0037803F04F
S214016690FD0111295BD1216B814205D1A3F11101C5
S2140166A04B424B4184F83430013E6369216B013221
S2140166B08B4203F1010308BF23636361954260695E
S2140166C0E4D1D4E90323216B1344994200D1226318
S2140166D00025D4E9032361691344994208BF626126
S2140166E0207A6576FCF7D8FF20461BF0FEFF63692B
S2140166F0834232D1257694F82D30E568656103B181
S21401670025632046636A9847214B0494039300232C
S214016710029323692A460193012300936368216843
S214016720207A1AF0F0FF207AFCF7D6FF50461AF0CE
S214016730C9FF4846C8F800601AF0C4FFD8F8003010
S214016740002B0CBF1B20002008B0BDE8F08707F81F
S214016750013BAAE72E460022B0E70123207A2376E2
S2140167600DF11E01FDF720F89DF81E30002BDAD042
S2140167700DF11F01207AFCF7EFFF9DF81F1000298D
S214016780D1D12246207AFFF71BFFCCE71646D0E789
S214016790C16501002DE9F0410C461546064686B056
S2140167A04022002120461F4625F03AF995E80300CD
S2140167B000232A692376EB6884E80300C4E90423EE
S2140167C02A7DE36084F82C20AA7D2363012384F8C4
S2140167D0343084F835300C9B84F82D2023620D9BD1
S2140167E0E76163620E9BA3622B7A84F836306B7A7C
S2140167F084F837302D4B346073602D4BB3602D4BCE
S21401680033612D4B73612D4BF360FCF711FF38B1EB
S2140168102B4B984204D01024204606B0BDE8F081E8
S214016820002104F10800FCF78BFE07460028F2D190
S2140168304FF00108234B3362234B84F83C80B3614D
S214016840224BF3619DF8403084F8390084F83B30E0
S2140168509DF83C30204684F83A30697D84F83880CB
S2140168601BF080FF95F90900FFF766FE95F9090010
S214016870FFF754FE164B0494CDE902732369CDE964
S21401688000836368E2682168207A1AF03CFF0446B8
S2140168900028C0D195F90800FFF74EFE95F90800CB
S2140168A0FFF73CFE3046FFF769FEB5E7B527030064
S2140168B025660100D9260300DF2603000B27030007
S2140168C0038000F0B326030065270300E5260300D6
S2140168D0C16501002DE9F0414FF001081C46574BF8
S2140168E086B00293564B0C9D0193564B1746009368
S2140168F00A46CDE903882946534BFFF74BFF064668
S214016900002840F09280236804222B64237985F8BE
S2140169104430A17985F84610607985F84500237AD8
S21401692085F84830E37985F84730A37A85F84A3008
S214016930637A85F84930237B85F84C30E37A85F80D
S2140169404B304346FDF7B6FD43460222217AE079F5
S214016950FDF7B0FD3E7039462068FDF7D7FF1421DC
S214016960A27B3A4B03EB4210C0F8AC1594F806C074
S21401697061792E3203EB421341EA0C415960227AC7
S214016980E37943EA0243C0F8BC3585F84D607B7E67
S214016990032B50D8DFE803F03A4D021D022385F899
S2140169A04D3000230422217BE07AFDF783FD41F27E
S2140169B0AC520221A37B5B0103F1A04303F57033C4
S2140169C09950217BE27A42EA014241F2B8515A508B
S2140169D01CE0012785F84D3002220023A17A607A57
S2140169E0FDF768FDA17A627AA37B42EA014241F291
S2140169F0B4515B0103F1A04303F570335A500422EE
S214016A00236803F58053DA65002FCAD163792A6CAF
S214016A1085F84530A379052185F84630D36C206882
S214016A2043F00403D3641AF0F9FE304606B0BDE81D
S214016A30F0810027CEE72326F7E700BFE32803000F
S214016A40D7280300672903005B29030000C0035011
S214016A5073B50024684600F0C7F90C4B00981C601B
S214016A600B4B0C4D1C600C4E0C4B306018602C60B0
S214016A701CF04DF82046019B3268013BDB08538031
S214016A802B6801332B6002B070BD00BF38170020A1
S214016A90341700203C170020441700204017002020
S214016AA02DE9F04F0027924687B04A1C0E4614BFC8
S214016AB00C46082499460597002B00F0B0801F600D
S214016AC0002800F0AE80073020F007051AF0F4FD2C
S214016AD005AB31460290009352463B46284600F0ED
S214016AE08DF9059E804606B130B902981AF0EAFD86
S214016AF0192007B0BDE8F08FDFF83CB17788DBF8E6
S214016B000010FB00C0EBC7070139272FCBF8001098
S214016B106CD9BAF1000F48D1854205F1080740D07B
S214016B20214630461BF07FFF04460590059B1F4417
S214016B3038461BF0ECFF059905F10F034A88C3F3AD
S214016B40CF03D21A7A80CA88BB8062B3D31A9BB2AB
S214016B5001EBC202FB8093808B88ED08A380BB8883
S214016B600022314638466580E38000F0BFF923787D
S214016B7043F001032370DBF800300133CBF800301B
S214016B802B4A02981368083443441360294A116853
S214016B908B4288BF13601AF095FD0020C9F80040AB
S214016BA0A7E73446C2E7FA80D6E7F41920460393EE
S214016BB01BF0ADFF08F10702D20805996280FA1DA5
S214016BC0D208A280CA887AB1D200039BD01DC31A0C
S214016BD04344C3F3CF030A44E3809380A388013F71
S214016BE0FF084F80CB80C2E7E280F7E7BAF1010FDA
S214016BF019D106F10803B3FBF4F204FB1233A3B177
S214016C00214630461BF00FFF04462378012243F04D
S214016C10010331462046237000F068F9B0E72220D0
S214016C2067E7212065E78542EAD13446EDE700BFF4
S214016C3038170020341700203C1700202DE9F347B1
S214016C400446684600F0D0F8002C00F0C2801AF026
S214016C5033FD14F8085CEB0704D534F806ECBEF1F6
S214016C60000F05D11AF02EFD012002B0BDE8F08715
S214016C70DFF870C134F8041CDCF800800EF1010264
S214016C8008F10103A4F1080692B2CCF800300029FD
S214016C9038D0A6EBC10393F800A0B3F806901AF01B
S214016CA0010F5F8805F0020520D105BBA9EB07019E
S214016CB0012927D80EF102021744BAB2CCF8008097
S214016CC034F8025C05BB14F8085C511E6FF300052E
S214016CD004F8085C002589B224F8065C5980197806
S214016CE065F3000119700021D98031E055B11144D6
S214016CF08AB214F8081C6FF3410104F8081C00213D
S214016D009980DDE73346DBE706EBC508DDE9007170
S214016D100F44B845D7D216F83560414616F001063D
S214016D202ED014F8086C551E6FF3000604F8086C94
S214016D30002624F8066C1C78ADB266F300045D806C
S214016D401C70C3F107040C44C4F3CF04DC808C80B0
S214016D50214C216819B1994201D8498801B92360AB
S214016D601E4C216819B1994201D3498801B92360A3
S214016D701B490B689B1A0B601AF0A4FC002074E7F1
S214016D80A5EB0E05012DCCD8B8F80250A8F8026084
S214016D9001352A44B8F8065092B2C5B108EBC501D0
S214016DA0DCF80050013DCCF8005014F8085C6FF395
S214016DB0000504F8085C002524F8065C541E5C8077
S214016DC01C7865F300041C700029BAD18BE72946AC
S214016DD0E6E7222049E700BF4417002040170020BD
S214016DE0381700203C1700200249034A0160521A56
S214016DF042607047682A002000800120F0B50646F0
S214016E000020059F4C1C08BF08213860BAB91F48EE
S214016E100568002D38D0B5F802E0DB0003EBCE0E96
S214016E20C1F1000C2878C0070BD52ABBE888B0B1A1
S214016E3005EBC005B5F802E003EBCE0EF2E7144809
S214016E40E6E7B645F1D35AB905F10804B4FBF1F00B
S214016E5001FB1044A0190CB17045E7D83D60F0BDA8
S214016E6008290FD06C88013405EBC404A01B00EA86
S214016E700C00201A8645F1D2A8880028EFD0A5EB91
S214016E80C005D7E73046E9E72846E8E7441700207B
S214016E9040170020134B13B51B6804460846FBB188
S214016EA021B96846FFF7A0FF6CB900980378D907A7
S214016EB007D55CB9C3889BB100EBC3000378DA073A
S214016EC0F8D402B010BD084B1868EFE7012C07D1C3
S214016ED083882BB1A0EBC3000378DB07F8D4F0E777
S214016EE00020EEE73C17002040170020F8B5124FAF
S214016EF005460C463B68114EB2B1994209D041B1E4
S214016F003368994204D129460120FFF7C3FF306058
S214016F10F8BD29460020FFF7BDFF33683860A3425D
S214016F20F1D0002CEFD0F3E79942336808BF386000
S214016F308B4208BF3060EBE7441700204017002063
S214016F40BFF35F8F074B5A6A22F480325A62D3F836
S214016F50942022F00102C3F89420BFF34F8FBFF3B1
S214016F606F8F704700ED00E038B5FFF7E9FF284A5C
S214016F702848D2F8C030284D23F0FF0343F0A00381
S214016F80C2F8C030254B04689D4204F101011ED1B0
S214016F90234BC2F89840C2F89C3003F5BF3303F583
S214016FA0FF73C2F8A0300160BFF35F8F0522184B54
S214016FB0C3F894205A6A42F480325A62BFF34F8F64
S214016FC0BFF36F8FBFF34F8FBFF36F8F38BD23F0C3
S214016FD01F03203BB3F1005F09D3C2F89840104C61
S214016FE043F00103C2F89C40C2F8A03001600D4B8B
S214016FF00168074A23F01F0343F00303C2F8981001
S214017000C2F89C30084B0131C2F8A030CBE700BF74
S21401701000ED00E0481700202028002080260020F0
S214017020030000203F280020E17F01202DE9F041E8
S2140170300D461146DFF8E080D8F80040B4F5807FB1
S21401704034BF00271A27FFF77BFF1F292ED90021FF
S214017050C2061CBF20F01F0020302E4EEB0618BFC4
S21401706025F01F05CBB29C4235D8D6F8C03020F0AB
S2140170701F0023F47F4343F48073C6F8C03040F00A
S21401708003041AF019FBD8F8003025F01F0141F06F
S2140170900301C6F89830C6F89C40C6F8A0101AF04E
S2140170A011FBD8F800300133C8F80030BFF35F8F0A
S2140170B00522184BC3F894205A6A42F480325A6269
S2140170C0BFF34F8FBFF36F8FBFF34F8FBFF36F8F3A
S2140170D03846BDE8F081C6F89830D6F89C30D6F828
S2140170E0A02023F01F03984222F01F0201D19542EF
S2140170F00BD0904201D89D4209D2D6F89830013182
S21401710023F0FF03C6F89830ACE70027CEE7282720
S214017110CCE700BF00ED00E048170020BFF34F8F1B
S2140171200549064BCA6802F4E0621343CB60BFF31D
S2140171304F8F00BFFDE700BF00ED00E00400FA0539
S214017140054B1A782AB95B78002B0CBF0320022066
S21401715070470120704700BF8B2500200329F8B532
S21401716098BF124B05460E468CBF00245C5C032874
S21401717005D8DFE800F002080B0E44F002040C4BC1
S2140171801F684FB9F8BD44F00804F8E744F020043E
S214017190F5E744F08004F2E77B681A68144203D0EE
S2140171A0314628465B6898473F68EAE748CE0300C1
S2140171B07817002038B5104D2B78ABB10F4C2378DB
S2140171C01BB100F037FB0023237000201BF0B5FC39
S2140171D00B4C50B100F080FB0023012120782B706E
S2140171E0FFF7BCFF0123237038BD0122054B1A703F
S2140171F02278054B1A70F7E78725002085250020A1
S2140172008D250020882500208925002010B51AF03C
S2140172104CFA064B04461B781BB1BDE810401AF029
S21401722048BAFFF7C7FF2046F7E700BF84250020CE
S214017230094A137830B101331370084B1B78012BC0
S21401724003D87047013B13707047054B1B780BB989
S214017250FFF7B0BF704700BF8B2500208D250020AB
S2140172608825002070B51AF020FA174E05461748F3
S2140172701BF022F93378D3B900F05EFC044620B146
S21401728028461AF016FA204670BD11481AF01DFA63
S21401729000F01EFF0F4B1C6000F036FD0E4B0F4A30
S2140172A01860536F43F0010353671BF04DFC00F069
S2140172B0C5F91BF044FC0A4B00241860012328463C
S2140172C033701AF0F6F9DEE78E25002044CE03006F
S2140172D0781700204C17002074170020004000503B
S2140172E0501700202DE9F843284A0138135C39B1BC
S2140172F0274F013339781354012904D8BDE8F883A0
S214017300013B1354FAE7FFF71BFF0128044635D863
S2140173101AF0CBF9DFF88480054698F8003013B3ED
S2140173201C4E33781BB9012232701B4A1370DFF8EA
S214017330709099F8003023B100F07CFA002389F8A8
S214017340003028461AF0B5F901201BF0F6FB1AF0BA
S214017350ACF9337805461BB100F0BEFA0023337052
S214017360002388F8003028461AF0A3F938788442BA
S214017370C4D02146FFF7F2FE3C70BFE70329F5D1E2
S2140173800228F3D11BF0DFFBF0E700BF8B250020BE
S2140173908D250020842500208825002087250020B3
S2140173A08525002038B51AF080F9094B05461B786B
S2140173B0012B04D81AF07DF90024204638BD054B70
S2140173C01C6800F0C7FA044428461AF072F9F4E77C
S2140173D08D2500204C17002038B5416004461AF070
S2140173E064F90546214604481AF072F92846BDE8B4
S2140173F038401AF05EB900BF78170020054B1B68AD
S2140174005843054B00F5742000F23F20B0FBF3F023
S214017410704700BF7417002040420F002DE9FF4758
S214017420EFF3108772B6AFF300801AF083F80028E6
S21401743071D06D4EDFF8D481337823B10020FFF789
S214017440F7FE00233370FFF77BFE0446002869D061
S214017450841EE4B2012C6CD9FFF772FE01280546A2
S214017460624CDFF8AC9100F28E802078A84205D0FD
S21401747099F80030002B00F0A5802570207800F0E8
S21401748053FA99F8003013B1594B1B782370AFF3B8
S214017490008007B962B6EFF3108772B6554B1A78BB
S2140174A052B100221A70524B20781B78984203D1B1
S2140174B001212170FFF752FE4F4800F077FB1AF0CA
S2140174C048F805460028B7D1DFF8488198F800301B
S2140174D0A3B189F80000DFF8309199F800301BB1AC
S2140174E000F0A8F989F8005000201BF026FB0028C0
S2140174F070D000F0F1F9002388F80030337823B11A
S2140175000020FFF795FE0023337000212078FFF757
S21401751025FE00232370AFF3008007B962B604B0DE
S214017520BDE8F0873378002B96D0FFF781FE3470E4
S21401753092E7002003A900F087FB044600288BD1C0
S214017540D8F80030039A9A4205D80120FFF770FE5A
S2140175500123337080E7294B1D6800F0FBF9039B7C
S21401756005449D42F1D200F00DFA8200039942F0E3
S214017570020292B2CDE900422346214A491B1E4827
S2140175801BF0EDFA68E7DFF88CA09AF800300BB92B
S21401759000F0E2F82078854203D099F80030ABB1CC
S2140175A025709AF80030002B7FF468AF154B1B78D6
S2140175B023B900F039F90122134B1A7001238AF816
S2140175C000305BE72946FFF7C9FD56E72946FFF776
S2140175D0C5FDE5E7012000F0A7F907B962B6EFF3AC
S2140175E0108772B680E700BF862500208D25002013
S2140175F08925002082250020541700204C170020E2
S2140176000D7201008A2500208525002050170020D4
S214017610882500208725002010B51AF046F800229C
S214017620054B1C781A701AF044F800F08FFCE4B28F
S2140176302043C0B210BD00BF832500203B4A3C4911
S214017640136F70B503F007030B60D2F800113948C9
S21401765001F0030101603849384D8969032BC1F3F4
S2140176604001297059D0D2F8203103F00703981E43
S21401767043424341D2F88022314C02F001021343C7
S2140176804FF4C8702370FFF7B9FE00222D4B2E4928
S21401769018602E4E0B680132D2B20A2A46F8040B45
S2140176A0F9D1034400EBC00003440B602B78284D4E
S2140176B063B323781D4A3BB9D2F8003103F00303C4
S2140176C0591E4B424B412370D2F8003103F003039D
S2140176D0022B24D0032B25D0012B17D1FBF73EFD1F
S2140176E0024698B1144B1B4EDC6800231946C4F3BE
S2140176F00B04013404EB84040138E4FB060118F0A2
S21401770037FBFFF77BFE2B6803442B601F20FFF738
S21401771075FE2B6803442B6070BD0123AAE7FBF7B7
S2140177207BFDDDE719F0B9FFDAE700BF0080005006
S214017730B4170020B817002000C001509225002081
S214017740932500207C170020801700208417002036
S214017750B017002040420F00044B054AD3F82031F1
S21401776003F0070313601AF03FB800BF0080005013
S214017770BC17002008B50D4B1A7892B100221A707A
S2140177800B4A136F23F0070343F001031367D2F884
S214017790203123F0070343F00403C2F82031FBF73E
S2140177A0C7FC0122034B5A6708BD00BF9125002084
S2140177B00080005000E000500122154B10B55A67BA
S2140177C0144B154C1B7813B302201BF06DFAF0B165
S2140177D000F06AFAD8B1A36DD90302D5E36D9A0712
S2140177E015D40D4B9B6DDB0711D401220B4B1A7080
S2140177F01BF039FABDE81040094B0A4A1860136FAE
S21401780023F0070343F003031367FBF791BC10BD96
S21401781000D000509325002000C000509025002085
S214017820AC170020008000500122014B1A707047EF
S21401783091250020F8B51F4B1B78002B39D01E4C24
S2140178402378B3B91D4B9A6DD10302D5DA6D920731
S2140178502FD49B6DDB072CD41BF005FA184B194A65
S2140178601860136F23F0070343F003031367FBF756
S2140178705FFC1BF0F8F9124B134D1B68134EC01A30
S2140178802B78134F56F8232046F82300111A3A682E
S2140178901048521A0A213A600932B2FBF1F201335A
S2140178A0DBB20260B3FBF1F201FB12332B70002353
S2140178B02370F8BD932500209025002000C00050BD
S2140178C0AC170020008000508F2500208417002070
S2140178D0801700207C17002008B519F086FF0D4A96
